:020000040800F2
:1000000000000320D9340008C52D0008D32D0008B6
:10001000D92D0008DF2D0008E52D000800000000A4
:10002000000000000000000000000000EB2D0008B0
:10003000F92D000800000000072E0008152E00080A
:100040002935000829350008293500082935000818
:100050002935000829350008293500082935000808
:1000600029350008293500082935000829350008F8
:1000700029350008293500082935000829350008E8
:1000800029350008293500082935000829350008D8
:1000900029350008293500082935000829350008C8
:1000A00029350008293500082935000829350008B8
:1000B00029350008293500082935000829350008A8
:1000C0002935000829350008293500082935000898
:1000D0002935000829350008293500082935000888
:1000E0002935000829350008293500082935000878
:1000F0002935000829350008293500082935000868
:100100002935000829350008293500082935000857
:100110002935000829350008293500082935000847
:100120002935000829350008293500082935000837
:100130002935000829350008293500082935000827
:100140002935000829350008293500082935000817
:100150002935000829350008293500082935000807
:1001600029350008293500082935000829350008F7
:10017000293500082935000829350008000000004D
:1001800029350008293500082935000829350008D7
:1001900029350008293500082935000829350008C7
:0C01A00029350008293500082935000821
:1001B00010B5054C237833B9044B13B10448AFF3A1
:1001C00000800123237010BD2803002000000000E0
:1001D00020B4000808B5034B1BB103490348AFF333
:1001E000008008BD000000002C03002020B400089F
:1001F000034613F8012B002AFBD1181A0138704767
:1002000001F0FF01102A2BDB10F0070F08D010F8C7
:10021000013B013A8B422DD010F0070F42B3F6D1CB
:10022000F0B441EA012141EA014122F007047FF0E4
:1002300000070023F0E80256083C85EA010586EA3B
:10024000010685FA47F5A3FA87F586FA47F6A5FA77
:1002500087F68EB9EED1F0BC01F0FF0102F0070283
:1002600032B110F8013B013A83EA010313B1F8D12E
:100270000020704701387047002D06BF354603380F
:10028000073815F0010F07D1013015F4807F02BF48
:10029000013015F4C03F0130F0BC0138704700BF99
:1002A00081F0004102E000BF83F0004330B54FEA27
:1002B00041044FEA430594EA050F08BF90EA020F94
:1002C0001FBF54EA000C55EA020C7FEA645C7FEA27
:1002D000655C00F0E2804FEA5454D4EB5555B8BF4A
:1002E0006D420CDD2C4480EA020281EA030382EABB
:1002F000000083EA010180EA020281EA0303362D4D
:1003000088BF30BD11F0004F4FEA01314FF4801C1F
:100310004CEA113102D0404261EB410113F0004F31
:100320004FEA03334CEA133302D0524263EB4303E8
:1003300094EA050F00F0A780A4F10104D5F1200E86
:100340000DDB02FA0EFC22FA05F2801841F10001E1
:1003500003FA0EF2801843FA05F359410EE0A5F1B5
:1003600020050EF1200E012A03FA0EFC28BF4CF0E6
:10037000020C43FA05F3C01851EBE37101F000459C
:1003800007D54FF0000EDCF1000C7EEB00006EEBA9
:100390000101B1F5801F1BD3B1F5001F0CD3490833
:1003A0005FEA30004FEA3C0C04F101044FEA44528A
:1003B00012F5800F80F09A80BCF1004F08BF5FEA11
:1003C000500C50F1000041EB045141EA050130BDF1
:1003D0005FEA4C0C404141EB0101013C28BFB1F503
:1003E000801FE9D291F0000F04BF01460020B1FA4E
:1003F00081F308BF2033A3F10B03B3F120020CDA21
:100400000C3208DD02F1140CC2F10C0201FA0CF0FE
:1004100021FA02F10CE002F11402D8BFC2F1200C63
:1004200001FA02F120FA0CFCDCBF41EA0C01904019
:10043000E41AA2BF01EB0451294330BD6FEA040462
:100440001F3C1CDA0C340EDC04F11404C4F120024D
:1004500020FA04F001FA02F340EA030021FA04F35F
:1004600045EA030130BDC4F10C04C4F1200220FAB6
:1004700002F001FA04F340EA0300294630BD21FAF4
:1004800004F0294630BD94F0000F83F4801306BFBA
:1004900081F480110134013D4EE77FEA645C18BFAE
:1004A0007FEA655C29D094EA050F08BF90EA020F45
:1004B00005D054EA000C04BF1946104630BD91EA3D
:1004C000030F1EBF0021002030BD5FEA545C05D140
:1004D0004000494128BF41F0004130BD14F580047F
:1004E0003CBF01F5801130BD01F0004545F0FE41F3
:1004F00041F470014FF0000030BD7FEA645C1ABF28
:10050000194610467FEA655C1CBF0B46024650EA5E
:10051000013406BF52EA033591EA030F41F400218A
:1005200030BD00BF90F0000F04BF0021704730B510
:100530004FF4806404F132044FF000054FF00001E5
:1005400050E700BF90F0000F04BF0021704730B5A6
:100550004FF4806404F1320410F0004548BF40427B
:100560004FF000013EE700BF42004FEAE2014FEAD0
:1005700031014FEA02701FBF12F07F4393F07F4FAB
:1005800081F06051704732F07F4208BF704793F0AE
:100590007F4F04BF41F40021704730B54FF46074C1
:1005A00001F0004521F000411CE700BF50EA0102C4
:1005B00008BF704730B54FF000050AE050EA01026D
:1005C00008BF704730B511F0004502D5404261EBDD
:1005D00041014FF4806404F132045FEA915C3FF41E
:1005E000D8AE4FF003025FEADC0C18BF03325FEABB
:1005F000DC0C18BF033202EBDC02C2F1200300FA6C
:1006000003FC20FA02F001FA03FE40EA0E0021FA90
:1006100002F11444BDE600BF70B54FF0FF0C4CF47E
:10062000E06C1CEA11541DBF1CEA135594EA0C0F30
:1006300095EA0C0F00F0DEF82C4481EA030621EA6B
:100640004C5123EA4C5350EA013518BF52EA0335A6
:1006500041F4801143F4801338D0A0FB02CE4FF058
:100660000005E1FB02E506F00042E0FB03E54FF088
:100670000006E1FB03569CF0000F18BF4EF0010E80
:10068000A4F1FF04B6F5007F64F5407404D25FEA7C
:100690004E0E6D4146EB060642EAC62141EA55512F
:1006A0004FEAC52040EA5E504FEACE2EB4F1FD0C71
:1006B00088BFBCF5E06F1ED8BEF1004F08BF5FEAEF
:1006C000500E50F1000041EB045170BD06F00046A1
:1006D00046EA010140EA020081EA0301B4EB5C044E
:1006E000C2BFD4EB0C0541EA045170BD41F4801146
:1006F0004FF0000E013C00F3AB8014F1360FDEBF6B
:10070000002001F0004170BDC4F10004203C35DA46
:100710000C341BDC04F11404C4F1200500FA05F3C9
:1007200020FA04F001FA05F240EA020001F000426A
:1007300021F0004110EBD37021FA04F642EB0601E0
:100740005EEA430E08BF20EAD37070BDC4F10C040A
:10075000C4F1200500FA04F320FA05F001FA04F2CE
:1007600040EA020001F0004110EBD37041F10001BA
:100770005EEA430E08BF20EAD37070BDC4F12005C5
:1007800000FA05F24EEA020E20FA04F301FA05F22D
:1007900043EA020321FA04F001F0004121FA04F2D5
:1007A00020EA020000EBD3705EEA430E08BF20EAA5
:1007B000D37070BD94F0000F0FD101F000464000DF
:1007C00041EB010111F4801F08BF013CF7D041EA61
:1007D000060195F0000F18BF704703F00046520065
:1007E00043EB030313F4801F08BF013DF7D043EA36
:1007F0000603704794EA0C0F0CEA135518BF95EAEC
:100800000C0F0CD050EA410618BF52EA4306D1D172
:1008100081EA030101F000414FF0000070BD50EA91
:10082000410606BF1046194652EA430619D094EA1B
:100830000C0F02D150EA013613D195EA0C0F05D105
:1008400052EA03361CBF104619460AD181EA030159
:1008500001F0004141F0FE4141F470014FF0000011
:1008600070BD41F0FE4141F4780170BD70B54FF0AC
:10087000FF0C4CF4E06C1CEA11541DBF1CEA13552C
:1008800094EA0C0F95EA0C0F00F0A7F8A4EB05040E
:1008900081EA030E52EA03354FEA013100F0888005
:1008A0004FEA03334FF0805545EA131343EA1263CE
:1008B0004FEA022245EA111545EA10654FEA002683
:1008C0000EF000419D4208BF964244F1FD0404F53C
:1008D000407402D25B084FEA3202B61A65EB030598
:1008E0005B084FEA32024FF480104FF4002CB6EB55
:1008F000020E75EB030E22BFB61A754640EA0C00D5
:100900005B084FEA3202B6EB020E75EB030E22BF14
:10091000B61A754640EA5C005B084FEA3202B6EB55
:10092000020E75EB030E22BFB61A754640EA9C0014
:100930005B084FEA3202B6EB020E75EB030E22BFE4
:10094000B61A754640EADC0055EA060E18D04FEAA2
:10095000051545EA16754FEA06164FEAC30343EA42
:1009600052734FEAC2025FEA1C1CC0D111F4801F0F
:100970000BD141EA00014FF000004FF0004CB6E708
:1009800011F4801F04BF01430020B4F1FD0C88BFA7
:10099000BCF5E06F3FF6AFAEB5EB030C04BFB6EBB2
:1009A000020C5FEA500C50F1000041EB045170BDA5
:1009B0000EF0004E4EEA113114EB5C04C2BFD4EBD2
:1009C0000C0541EA045170BD41F480114FF0000E56
:1009D000013C90E645EA060E8DE60CEA135594EAD2
:1009E0000C0F08BF95EA0C0F3FF43BAF94EA0C0FD5
:1009F0000AD150EA01347FF434AF95EA0C0F7FF44A
:100A000025AF104619462CE795EA0C0F06D152EA9D
:100A100003353FF4FDAE1046194622E750EA410681
:100A200018BF52EA43067FF4C5AE50EA41047FF492
:100A30000DAF52EA43057FF4EBAE12E74FF0FF3CF7
:100A400006E000BF4FF0010C02E000BF4FF0010CC8
:100A50004DF804CD4FEA410C7FEA6C5C4FEA430C41
:100A600018BF7FEA6C5C1BD001B050EA410C0CBF90
:100A700052EA430C91EA030F02BF90EA020F0020F2
:100A8000704710F1000F91EA030F58BF994208BF59
:100A900090422CBFD8176FEAE37040F00100704716
:100AA0004FEA410C7FEA6C5C02D150EA013C07D16D
:100AB0004FEA430C7FEA6C5CD6D152EA033CD3D0B8
:100AC0005DF8040B704700BF8446104662468C46B2
:100AD0001946634600E000BF01B5FFF7B7FF0028E5
:100AE00048BF10F1000F01BD4DF808EDFFF7F4FF0E
:100AF0000CBF012000205DF808FB00BF4DF808ED99
:100B0000FFF7EAFF34BF012000205DF808FB00BFBB
:100B10004DF808EDFFF7E0FF94BF012000205DF8DD
:100B200008FB00BF4DF808EDFFF7CEFF94BF012092
:100B300000205DF808FB00BF4DF808EDFFF7C4FF8B
:100B400034BF012000205DF808FB00BF4FEA410CD4
:100B50007FEA6C5C02D150EA013C0AD14FEA430CB7
:100B60007FEA6C5C02D152EA033C02D14FF00000F4
:100B700070474FF0010070474FEA410212F5001232
:100B800015D211D56FF47873B3EB625212D94FEAD4
:100B9000C12343F0004343EA505311F0004F23FABE
:100BA00002F018BF404270474FF00000704750EA13
:100BB000013005D111F0004008BF6FF000407047D0
:100BC0004FF00000704700BF4A0011D212F500122A
:100BD00011D20DD56FF47873B3EB62520ED44FEA95
:100BE000C12343F0004343EA505323FA02F0704715
:100BF0004FF00000704750EA013002D14FF0FF3053
:100C000070474FF0000070474FEA4102B2F1E043F5
:100C100024BFB3F5001CDCF1FE5C0DD901F0004CE3
:100C20004FEAC0024CEA5070B2F1004F40EB830033
:100C300008BF20F00100704711F0804F21D113F15F
:100C40003872BCBF01F00040704741F480114FEA98
:100C50005252C2F11802C2F1200C10FA0CF320FA21
:100C600002F018BF40F001004FEAC1234FEAD3233E
:100C700003FA0CFC40EA0C0023FA02F34FEA4303A8
:100C8000CCE77FEA625307D150EA01331EBF4FF031
:100C9000FE4040F44000704701F0004040F0FE404C
:100CA00040F40000704700BF53B94AB9002908BF9B
:100CB00000281CBF4FF0FF314FF0FF3000F0A4B907
:100CC000ADF1080C6DE904CE00F03CF8DDF804E06D
:100CD000DDE9022304B0704738B500220023044642
:100CE0000D46FFF70BFF28B920462946BDE83840DE
:100CF00000F00AB8204605F1004100F005F8404236
:100D000061EB410138BD00BFD0B50C4B0022064657
:100D10000F46FFF781FCFFF757FF0446FFF702FC81
:100D2000074B0022FFF778FC02460B463046394657
:100D3000FFF7BAFAFFF748FF2146D0BD0000F03DAB
:100D40000000F0412DE9F047089D04468C46002B39
:100D500040F083808A42174647D9B2FA82F242B104
:100D6000C2F1200024FA00F09140974040EA010CC3
:100D700094404FEA1748230CBCFBF8F61FFA87FE95
:100D800008FB16C143EA014306FB0EF1994209D95B
:100D9000FB1806F1FF3080F01981994240F216816C
:100DA000023E3B445B1AA4B2B3FBF8F008FB1033DD
:100DB00044EA034400FB0EFEA64509D93C1900F1A4
:100DC000FF3380F00581A64540F2028102383C44A1
:100DD00040EA0640A4EB0E0400261DB1D4400023D7
:100DE000C5E900433146BDE8F08702B9FFDEB2FA3B
:100DF00082F2002A50D1CB1B4FEA174E1FFA87F818
:100E00000126B3FBFEFC210C0EFB1C3341EA03411F
:100E100008FB0CF38B4207D979180CF1FF3002D292
:100E20008B4200F2E9808446C91AA3B2B1FBFEF0FE
:100E30000EFB101143EA014408FB00F8A04507D956
:100E40003C1900F1FF3302D2A04500F2D9801846C8
:100E5000A4EB080440EA0C40BFE78B4209D9002DFF
:100E600000F0B1800026C5E9000130463146BDE8FA
:100E7000F087B3FA83F6002E4AD18B4202D3824226
:100E800000F2B880841A61EB030101208C46002D2A
:100E9000A8D0C5E9004CA5E7C2F1200320FA03F66B
:100EA000974001FA02F04FEA174ED9403043030C45
:100EB000B1FBFEF61FFA87F80EFB161143EA014359
:100EC00006FB08F1994204FA02F409D9FB1806F16D
:100ED000FF3C80F08D80994240F28A80023E3B4484
:100EE0005B1A81B2B3FBFEF00EFB103341EA034103
:100EF00000FB08F38B4207D9791800F1FF3C73D24D
:100F00008B4271D902383944CB1A40EA064678E759
:100F1000C6F1200C03FA06F422FA0CF31C4320FA63
:100F20000CF701FA06F34FEA144E21FA0CF11F43B5
:100F30003B0CB1FBFEF91FFA84F80EFB191143EAD2
:100F4000014109FB08FA8A4502FA06F200FA06F3A3
:100F500008D9611809F1FF3048D28A4546D9A9F16C
:100F600002092144A1EB0A01BFB2B1FBFEF00EFB66
:100F7000101147EA014700FB08F8B84507D9E719FF
:100F800000F1FF312ED2B8452CD90238274440EA6F
:100F90000940A7EB0807A0FB02894F45C646494612
:100FA0001AD317D05DB1B3EB0E0267EB010707FA56
:100FB0000CFCF2404CEA0202F740C5E9002700268B
:100FC0003146BDE8F0872E4628460BE70646E9E69F
:100FD0001846FDE64345E5D2B8EB020E69EB040185
:100FE0000138DFE70846D2E760468DE78146B9E77A
:100FF000664675E730464AE7ACF1020C394413E720
:1010000002383C4424E700BF704700BF00000000E6
:1010100080B582B000AF0021A14802F0EEFFA148E8
:1010200002F05EFB9F4802F0A5FC03469E4A136057
:101030009D4B1B681846FFF775FA89A3D3E9002377
:10104000FFF7EAFA02460B4610461946FFF7DCFDA9
:101050000346964A1360954B1B681846FFF784FABF
:1010600002460B4680A1D1E90001FFF71DF90246B7
:101070000B46104619467EA3D3E90023FFF7CCFAAE
:1010800002460B46104619467BA3D3E90023FFF71F
:101090000DF902460B4643EC172BB0EE470AF0EE73
:1010A000670A0AF0D5F853EC102B75A1D1E90001BD
:1010B000FFF7FAF802460B461046194672A3D3E929
:1010C0000023FFF7D3FB02460B46104619464FF0AC
:1010D0000002774BFFF7EAF802460B461046194626
:1010E000FFF792FD0346734A1360724BD3ED007A0B
:1010F000FCEEE77A17EE902A6F4B1A600A2002F096
:1011000087FA6E4802F0ECFA01216C4802F0AEFB5F
:101110000346002B3DD1694802F02CFC07EE900AF3
:10112000F8EE677A664BC3ED007A654B1B6818468C
:10113000FFF71AFA56A3D3E90023FFF76DFA024628
:101140000B461046194654A3D3E90023FFF764FA6F
:1011500002460B4610461946FFF756FD0346594A0C
:101160001360584BD3ED006A574BD3ED007A9FEDD7
:10117000576A87EE867AC6EE877A554BC3ED007ABA
:10118000534BD3ED007AFCEEE77A17EE902A514BE1
:101190001A600A2002F03CFA01214F4803F0B2F92C
:1011A0000346002B37D002F027FA78602CE002F0DB
:1011B00023FA02467B68D31AB3F5967F10D902F062
:1011C0001BFA7860404BD3ED007AB2EE047A77EEEA
:1011D000877A3D4BC3ED007A052002F019FA1AE038
:1011E00002F00AFA02467B68D31A142B0CD9364B4C
:1011F000D3ED007AB7EE007A77EE877A324BC3ED03
:10120000007A642002F004FA0121334803F07AF9ED
:101210000346002BCBD10221304803F073F903467B
:10122000002B78D002F0E8F938606DE002F0E4F9C4
:1012300002463B68D31AB3F5967F51D902F0DCF928
:101240003860214BD3ED007AB2EE047A77EEC77A9C
:101250001D4BC3ED007A052002F0DAF95BE000BF18
:10126000986E1283C0CAE93F9A999999996DA140E5
:101270003F52448655BC913F282EC72B100F674024
:10128000448B6CE7FB292B403F52448655BC81BF01
:101290004C48F346F2E4493F0F37025100E72E4035
:1012A00024080020940700204C0800204408002057
:1012B00000003E408807002084070020DC07002053
:1012C000480800208C0700209007002000007A4486
:1012D0003C080020400800200004024000080240B2
:1012E00002F08AF902463B68D31A142B0CD9554BED
:1012F000D3ED007AB7EE007A77EEC77A514BC3EDA3
:10130000007A642002F084F902214F4803F0FAF8D1
:101310000346002B8AD14B4BD3ED007AB3EE047A0F
:1013200067EE877A494BC3ED007A484B93ED007A1C
:10133000DFED476AC7EE267A464BC3ED007A454B90
:10134000D3ED007AFCEEE77A17EE903A0022002106
:10135000414802F005FF3B4BD3ED007AFCEEE77A03
:1013600017EE902A3D4B1A60364BD3ED007A9FED75
:101370003C7AF4EEC77AF1EE10FA02DD314B394ACD
:101380001A60344BD3ED007A9FED377AF4EEC77ACA
:10139000F1EE10FA02DD2F4B344A1A60294BD3EDDF
:1013A000007AF5EEC07AF1EE10FA03D5254B4FF036
:1013B00000021A600121012001F09AF92C4B1B68F0
:1013C0001A462C492C4806F09FF901222B492A483D
:1013D00001F024FA0121692001F08AF9012227494C
:1013E000274801F01BFA274B1B681A462649274855
:1013F00006F08AF91321012001F07AF901221F4930
:10140000224801F00BFA154B1B681A462049214867
:1014100006F07AF92521012001F06AF901221E491E
:101420001C4801F0FBF92521572001F061F9012248
:1014300019491A4801F0F2F901F0B4F800BF083771
:10144000BD4680BD900700200008024048030020F0
:1014500000404E3F44030020240800208007002065
:101460000000C8420000C84200F07F4500F07F4500
:101470004008002038B40008400000206000002030
:1014800050B400088407002054B400082000002055
:1014900070B40008000000207000002080B4000834
:1014A00080B586B002AF0346FB71FB7923F00F03D2
:1014B000FB73FB791B01BB73FB7B43F00C03DBB2BB
:1014C0003B72FB7B43F00803DBB27B72BB7B43F0D8
:1014D0000C03DBB2BB72BB7B43F00803DBB2FB72D5
:1014E00007F108026423009304234E21034803F00C
:1014F0007FF900BF1037BD4680BD00BF980C0020AB
:1015000080B500AF0220FFF7CBFF2820FFF7C8FF10
:101510000C20FFF7C5FF8020FFF7C2FF00BF80BD92
:1015200080B500AF0121012001F0E2F80122084955
:10153000084801F073F91321012001F0D9F80122C4
:101540000349054801F06AF901F02CF800BF80BD9D
:101550006000002088B4000898B4000880B500AF8F
:10156000B24BD3ED007AB0EE087AF4EEC77AF1EE22
:1015700010FA02DDAD4BAE4A1A60AC4BD3ED007AE7
:10158000B7EE007AF4EEC77AF1EE10FA03D5A74B66
:101590004FF07E521A600121A64802F0B3FF0346C5
:1015A000002B0CD0A14BD3ED007AB7EE007A77EE8A
:1015B000877A9E4BC3ED007AC82002F029F80221F9
:1015C0009D4802F09FFF0346002B0CD0974BD3EDB4
:1015D000007AB7EE007A77EEC77A944BC3ED007AC3
:1015E000C82002F015F84FF40051944802F08AFF29
:1015F0000346002B06D0924B01221A60C82002F04D
:1016000007F802E08E4B00221A60884BD3ED007A77
:10161000B7EE007AF4EE477AF1EE10FA4FD10121DD
:10162000012001F065F801228649874801F0F6F8AB
:101630001321012001F05CF801228249834801F066
:10164000EDF81E21012001F053F801227D49804868
:1016500001F0E4F82821012001F04AF801227D4937
:101660007D4801F0DBF800F09DFF704BD3ED007A70
:10167000B7EE007AF4EE477AF1EE10FA1FD1704B14
:101680001B68012B1BD110E0FFF7C2FC4FF4005187
:101690006A4802F037FF0346012B06D1C82001F04B
:1016A000B7FF624B4FF000021A60604BD3ED007A37
:1016B000B7EE007AF4EE477AF1EE10FAE4D05B4B25
:1016C000D3ED007AB0EE007AF4EE477AF1EE10FA3C
:1016D0004FD10121012001F00BF8012259495F4847
:1016E00001F09CF81321012001F002F80122554974
:1016F000564801F093F81E21012000F0F9FF012265
:101700005049574801F08AF82821012000F0F0FFE5
:1017100001225049534801F081F800F043FF434B48
:10172000D3ED007AB0EE007AF4EE477AF1EE10FADB
:101730001FD1434B1B68012B1BD110E000F0F0FBC5
:101740004FF400513D4802F0DDFE0346012B06D167
:10175000C82001F05DFF354B4FF000021A60334B9B
:10176000D3ED007AB0EE007AF4EE477AF1EE10FA9B
:10177000E4D02E4BD3ED007AB0EE087AF4EE477A3F
:10178000F1EE10FA4FD10121012000F0B1FF01224A
:101790002C49324801F042F81321012000F0A8FF43
:1017A00001222849294801F039F81E21012000F0C2
:1017B0009FFF01222349264801F030F8282101200B
:1017C00000F096FF01222349274801F027F800F096
:1017D000E9FE164BD3ED007AB0EE087AF4EE477AC4
:1017E000F1EE10FA1FD1164B1B68012B1BD110E034
:1017F00001F0EAFB4FF40051104802F083FE03466B
:10180000012B06D1C82001F003FF084B4FF0000266
:101810001A60064BD3ED007AB0EE087AF4EE477A00
:10182000F1EE10FAE4D000BF80BD00BF78000020C8
:101830000000404000040240000802400014024042
:101840004C03002060000020ACB4000898B40008ED
:10185000C4B4000868000020D8B40008ECB4000844
:1018600004B5000818B500082CB5000880B500AF15
:1018700001F05CFE00F018F800F016FA00F0BCF978
:1018800000F0E4F900F024F900F04CF900F07CF8E5
:1018900000F0CCF800F086F901F0E8FDFFF740FE1B
:1018A000FFF75CFEFCE7000080B594B000AF07F1E5
:1018B000200330220021184605F09EF807F10C03A2
:1018C00000221A605A609A60DA601A610023BB60D5
:1018D0002B4B1B6C2A4A43F080531364284B1B6C20
:1018E00003F08053BB60BB6800237B60254B1B6803
:1018F00023F44043234A43F480431360214B1B6885
:1019000003F440437B607B6803233B624FF4A023D6
:101910007B620123FB6210233B630223BB634FF412
:101920008003FB6304233B64A8237B640223BB6422
:101930000723FB6407F12003184603F027FD034645
:10194000002B01D000F0E4FA0F23FB6000233B6181
:1019500000237B614FF4A053BB614FF48053FB61C4
:1019600007F10C030021184603F080FF0346002B0B
:1019700001D000F0CDFA00BF5037BD4680BD00BF9A
:10198000003802400070004080B584B000AF3B4694
:1019900000221A605A609A60DA60214B214A1A606C
:1019A0001F4B4FF400325A601D4B00229A601C4BB3
:1019B00000221A611A4B00221A76194B002283F872
:1019C0002020174B0022DA62154B174A9A62144BFB
:1019D0000022DA60124B0122DA61114B002283F8F7
:1019E00030200F4B01225A610D4801F035FE0346AD
:1019F000002B01D000F08CFA03233B6001237B60B5
:101A00000023BB603B461946054801F0C1FF034671
:101A1000002B01D000F07CFA00BF1037BD4680BD1E
:101A200094070020002001400100000F80B584B021
:101A300000AF3B4600221A605A609A60DA60214B80
:101A4000214A1A601F4B4FF400325A601D4B00228E
:101A50009A601C4B00221A611A4B00221A76194B0D
:101A6000002283F82020174B0022DA62154B174A18
:101A70009A62144B0022DA60124B0122DA61114B98
:101A8000002283F830200F4B01225A610D4801F0EB
:101A9000E3FD0346002B01D000F03AFA0A233B6035
:101AA00001237B600023BB603B461946054801F0DB
:101AB0006FFF0346002B01D000F02AFA00BF103759
:101AC000BD4680BDDC070020002201400100000F60
:101AD00080B582B000AF3B4600221A605A600F4BBF
:101AE0000F4A1A600D4802F066FA0346002B01D037
:101AF00000F00EFA00233B6000237B603B4600228F
:101B00001946064802F0DFFA0346002B01D000F028
:101B1000FFF900BF0837BD4680BD00BF2408002084
:101B20000074004080B500AF1B4B1C4A1A601A4B72
:101B30001B4A5A60184B00229A60174B0022DA6049
:101B4000154B4FF480421A61134B00225A61124B1D
:101B500000229A61104B0022DA610F4B00221A62B8
:101B60000D4802F001FD0346002B01D000F0D0F932
:101B70000021094803F071FA0346002B01D000F060
:101B8000C7F90021044803F0A4FA0346002B01D052
:101B900000F0BEF900BF80BD980C00200058004046
:101BA000801A060080B500AF114B124A1A60104B24
:101BB0004FF4E1325A600E4B00229A600C4B002227
:101BC000DA600B4B00221A61094B0C225A61084B58
:101BD00000229A61064B0022DA61054804F042F8BF
:101BE0000346002B01D000F093F900BF80BD00BF79
:101BF000EC0C00200050004080B500AF114B124AA1
:101C00001A60104B4FF4E1325A600E4B00229A607A
:101C10000C4B0022DA600B4B00221A61094B0C229C
:101C20005A61084B00229A61064B0022DA6105488E
:101C300004F018F80346002B01D000F069F900BF4A
:101C400080BD00BF500800200048004080B500AFB4
:101C5000144B4FF0A0421A60124B04225A60114BF1
:101C60000222DA600F4B00221A610E4B02229A61A7
:101C70000C4B0122DA610B4B00221A62094B002245
:101C80005A62084B0122DA62064B00221A630548A9
:101C900003F05EFA0346002B01D000F039F900BFD3
:101CA00080BD00BF9008002080B58CB000AF07F168
:101CB0001C0300221A605A609A60DA601A610023DD
:101CC000BB618C4B1B6B8B4A43F004031363894B42
:101CD0001B6B03F00403BB61BB6900237B61854B75
:101CE0001B6B844A43F020031363824B1B6B03F08E
:101CF00020037B617B6900233B617E4B1B6B7D4A2C
:101D000043F0800313637B4B1B6B03F080033B6149
:101D10003B690023FB60774B1B6B764A43F0010362
:101D20001363744B1B6B03F00103FB60FB68002320
:101D3000BB60704B1B6B6F4A43F0020313636D4B28
:101D40001B6B03F00203BB60BB6800237B60694B25
:101D50001B6B684A43F008031363664B1B6B03F06D
:101D600008037B607B6800233B60624B1B6B614A0E
:101D700043F0400313635F4B1B6B03F040033B6076
:101D80003B68002240215C4802F0D4FB0022802105
:101D90005A4802F0CFFB4FF40053FB61584B3B62B3
:101DA00000237B6207F11C031946564802F0FEF936
:101DB00042F21003FB6100233B6202237B6207F1C6
:101DC0001C031946504802F0F1F940F60203FB618A
:101DD00000233B6202237B6207F11C03194649483A
:101DE00002F0E4F98623FB6102233B6200237B625D
:101DF0000323BB620B23FB6207F11C031946434814
:101E000002F0D4F92023FB6100233B6202237B62B2
:101E100007F11C0319463D4802F0C8F93023FB6165
:101E200002233B6200237B620323BB620B23FB6222
:101E300007F11C031946334802F0B8F944F20103D4
:101E4000FB6100233B6202237B6207F11C031946FE
:101E50002A4802F0ABF94FF40053FB6102233B62C6
:101E600000237B620323BB620B23FB6207F11C038D
:101E70001946224802F09AF94023FB6101233B6294
:101E800000237B620023BB6207F11C0319461A483A
:101E900002F08CF98023FB6100233B6200237B620C
:101EA00007F11C031946144802F080F94FF420533F
:101EB000FB6102233B6200237B620323BB620B2393
:101EC000FB6207F11C0319460B4802F06FF98023EF
:101ED000FB6101233B6200237B620023BB6207F1AD
:101EE0001C031946054802F061F900BF3037BD46B2
:101EF00080BD00BF003802400018024000040240CC
:101F000000001110000802400014024000000240CE
:101F100080B400AF00BFBD465DF8047B7047000091
:101F200080B582B000AF00219D4802F066F89D4860
:101F300001F0D6FB9B4801F01DFD07EE900AF8EE7C
:101F4000677A994BC3ED007A974B1B681846FEF7EA
:101F50000BFB85A3D3E90023FEF75EFB02460B468D
:101F600010461946FEF750FE0346904A13608F4B09
:101F70001B681846FEF7F8FA02460B467CA1D1E929
:101F80000001FEF791F902460B46104619467AA366
:101F9000D3E90023FEF740FB02460B4610461946E4
:101FA00077A3D3E90023FEF781F902460B4643EC01
:101FB000172BB0EE470AF0EE670A09F049F953EC27
:101FC000102B71A1D1E90001FEF76EF902460B4614
:101FD000104619466EA3D3E90023FEF747FC0246DC
:101FE0000B46104619464FF00002714BFEF75EF9A2
:101FF00002460B4610461946FEF706FE03466D4A9A
:1020000013606C4BD3ED007AFCEEE77A17EE902A62
:10201000694B1A600A2001F0FBFA684801F060FB86
:102020004FF0FF31654801F021FC0346002B35D10C
:10203000624801F09FFC07EE900AF8EE677A604B69
:10204000C3ED007A5E4B1B681846FEF78DFA52A36B
:10205000D3E90023FEF7E0FA02460B461046194684
:102060004FF00002574BFEF701FC02460B461046AC
:102070001946FEF7C9FD0346534A1360534B4FF010
:1020800000021A60514BD3ED007AF5EE407AF1EE82
:1020900010FA03D04E4B4FF000021A600A2001F0F4
:1020A000B7FA01214B4802F02DFA0346002B37D036
:1020B00001F0A2FA78602CE001F09EFA02467B68FB
:1020C000D31AB3F5967F10D901F096FA7860404B99
:1020D000D3ED007A9FED407A77EE877A3C4BC3EDE3
:1020E000007A052001F094FA1AE001F085FA024620
:1020F0007B68D31A142B0CD9354BD3ED007AB7EE8D
:10210000007A77EE877A324BC3ED007A642001F0D3
:102110007FFA01212F4802F0F5F90346002BCBD1BD
:1021200002212E4802F0EEF90346002B73D001F095
:1021300063FA386068E001F05FFA02463B68D31A40
:10214000B3F5967F4CD901F057FA3860204BD3EDA8
:10215000007A9FED217A77EEC77A1D4BC3ED007AA6
:10216000052001F055FA56E0986E1283C0CAE93F87
:102170009A999999996DA1403F52448655BC913FD7
:10218000282EC72B100F6740448B6CE7FB292B4090
:102190003F52448655BC81BF52B81E85EBD12840C2
:1021A00024080020940700204C0D00202C0D002056
:1021B00000003E40400D0020300D0020DC070020D4
:1021C0005003002000408F40540300208000002076
:1021D0007C00002000040240000048420008024049
:1021E00001F00AFA02463B68D31A142B0CD9744B3F
:1021F000D3ED007AB7EE007A77EEC77A704BC3ED75
:10220000007A642001F004FA02216E4802F07AF9A3
:102210000346002B8FD16C4BD3ED006A684B93EDD6
:10222000007AC6EE877A9FED697A67EE877A684B07
:10223000C3ED007A624BD3ED007AFCEEE77A17EE3D
:10224000902A644B1A60624BD3ED007AFCEEE77A79
:1022500017EE902A604B1A605D4BD3ED007A9FED2C
:102260005F7AF4EEC77AF1EE10FA02DD584B5C4A61
:102270001A60594B1B68642B02D9574B64221A60B1
:102280000121012000F034FA534B1B681A465549CE
:10229000554805F039FA01225449534800F0BEFA76
:1022A0000121692000F024FA01225049504800F031
:1022B000B5FA504B1B681A464F49504805F024FAAE
:1022C0001321012000F014FA012248494B4800F084
:1022D000A5FA404B1B681A4649494A4805F014FACA
:1022E0002521012000F004FA01224749454800F069
:1022F00095FA25214B2000F0FBF901224249434881
:1023000000F08CFA00F04EF9142001F081F92C4B0A
:10231000D3ED007AB7EE007AF4EEC77AF1EE10FA58
:1023200003D5274B4FF07E521A60294BD3ED007A2C
:10233000F5EEC07AF1EE10FA03D5254B4FF000020E
:102340001A60234BD3ED007AB3EE047A67EE877AF6
:102350002F4BC3ED007A2E4B93ED007ADFED2D6A03
:10236000C7EE267A2C4BC3ED007A2B4BD3ED007AC7
:102370009FED2A7AF4EEC77AF1EE10FA02DD264BD1
:10238000274A1A60124BD3ED007A9FED147AF4EECF
:10239000C77AF1EE10FA02DD0D4B114A1A601E4B9E
:1023A000D3ED007AFCEEE77A17EE903A0022002196
:1023B0001C4801F0D5FE00BF0837BD4680BD00BFF8
:1023C0007C000020000802405403002000007A44F2
:1023D00080000020480D0020440D00200000C8426D
:1023E0000000C84244B50008C4000020600000207E
:1023F00060B50008300D002064B50008A40000207E
:102400007CB50008840000207000002088B500081A
:10241000340D002000404E3F5803002000F07F455F
:1024200000F07F452408002080B582B000AF00F0A6
:102430001BFA44F6206301227821584802F0D6FAAC
:102440000346002B01D00023A4E040F6C4137B60B8
:1024500002E07B68013B7B607B68002BF9D1AE22F8
:102460000021782000F06EFA20220021782000F070
:1024700069FA10220021782000F064FAB0220021CD
:10248000782000F05FFAC8220021782000F05AFA84
:1024900000220021782000F055FA10220021782037
:1024A00000F050FA40220021782000F04BFA8122FF
:1024B0000021782000F046FAFF220021782000F069
:1024C00041FAA1220021782000F03CFAA622002146
:1024D000782000F037FAA8220021782000F032FAA4
:1024E0003F220021782000F02DFAA422002178203C
:1024F00000F028FAD3220021782000F023FA0022ED
:102500000021782000F01EFAD5220021782000F06A
:1025100019FAF0220021782000F014FAD9220021C3
:10252000782000F00FFA22220021782000F00AFA29
:10253000DA220021782000F005FA1222002178200A
:1025400000F000FADB220021782000F0FBF92022C5
:102550000021782000F0F6F98D220021782000F08B
:10256000F1F914220021782000F0ECF9AF220021CB
:10257000782000F0E7F9002000F042F800F012F8AF
:10258000074B00221A80064B00225A80044B01227E
:102590005A71012318460837BD4680BD980C0020AB
:1025A0005C07002080B582B000AF0023FB711DE006
:1025B000FB79503BDBB21A460021782000F0C2F9CB
:1025C00000220021782000F0BDF91022002178209F
:1025D00000F0B8F9FB79DB01084A1A448023402156
:1025E000782000F057F9FB790133FB71FB79072B59
:1025F000DED900BF00BF0837BD4680BD5C030020A8
:1026000080B582B000AF0346FB71FB79002B01D18E
:10261000002300E0FF234FF480621946034804F0D2
:10262000EBF900BF0837BD4680BD00BF5C0300204A
:1026300080B483B000AF0346FB800B46BB801346DB
:10264000FB70FB887F2B48D8BB883F2B45D8264B97
:102650001B79002B06D0FB78002B0CBF0123002335
:10266000DBB2FB70FB78012B1AD1FA88BB88DB0840
:1026700098B20346DB0113441C4AD35C5AB2BB88B0
:1026800003F00703012101FA03F35BB2134359B2CC
:10269000FA880346DB011344C9B2144AD1541DE041
:1026A000FA88BB88DB0898B20346DB0113440F4A63
:1026B000D35C5AB2BB8803F00703012101FA03F38C
:1026C0005BB2DB435BB2134059B2FA880346DB01CD
:1026D0001344C9B2054AD15400E000BF0C37BD46CF
:1026E0005DF8047B704700BF5C0700205C0300209E
:1026F00080B483B000AF03460A46FB801346BB801C
:10270000054AFB881380044ABB88538000BF0C37FE
:10271000BD465DF8047B70475C07002080B586B03D
:1027200000AF03463960FB711346BB713A4B1B88FF
:102730001A463B681B7813447F2B07DC364B5B88BB
:102740001A463B685B7813443F2B01DD00235EE0B3
:1027500000237B614BE03B685A68FB79203B39687A
:10276000497801FB03F319467B690B445B00134472
:102770001B88FB6000233B6130E0FA683B6902FA8A
:1027800003F303F40043002B10D0234B1A883B695A
:102790009BB2134498B2204B5A887B699BB2134476
:1027A0009BB2BA791946FFF743FF14E01A4B1A8817
:1027B0003B699BB2134498B2174B5A887B699BB212
:1027C000134499B2BB79002B0CBF01230023DBB269
:1027D0001A46FFF72DFF3B6901333B613B681B78CD
:1027E0001A463B699342C8D37B6901337B613B68DE
:1027F0005B781A467B699342ADD3074B1A883B68D6
:102800001B789BB213449AB2034B1A80FB7918468B
:102810001837BD4680BD00BF5C07002080B584B07E
:1028200000AFF860B9601346FB7112E0FB681B78DB
:10283000FA79B9681846FFF771FF03461A46FB6834
:102840001B789A4202D0FB681B7808E0FB680133D2
:10285000FB60FB681B78002BE8D1FB681B781846EF
:102860001037BD4680BD000080B483B000AF084B78
:102870007B6002E07B68013B7B607B68002BF9D1C9
:1028800000BF00BF0C37BD465DF8047B704700BF3A
:1028900090D00300B0B588B002AF3A601A46034644
:1028A000FB710B46BB711346BB806B461D46BB8854
:1028B0005C1C631E3B61234618464FF000014FF03D
:1028C00000024FF00003CB0043EA5073C2002346DE
:1028D00018464FF000014FF000024FF00003CB000C
:1028E00043EA5073C20023460733DB08DB00ADEB3D
:1028F000030D02AB0033FB60FB68BA791A70012349
:10290000FB750AE0FB7D013B3A681A44FB7D1178B8
:10291000FA68D154FB7D0133FB75FB7D9BB2BA880D
:102920009A42EFD2FB7999B2FA68BB880A200090EC
:10293000034801F05DFFAD4600BF1837BD46B0BD8E
:10294000980C002080B586B002AF0346FB710B46A1
:10295000BB7113467B71BB793B737B797B73FB79CE
:1029600099B207F10C020A2300930223034801F0F5
:102970003FFF00BF1037BD4680BD00BF980C002050
:1029800080B483B000AF00237B60104B5B6C0F4AB8
:1029900043F4804353640D4B5B6C03F480437B60D2
:1029A0007B6800233B60094B1B6C084A43F0805353
:1029B0001364064B1B6C03F080533B603B6800BF05
:1029C0000C37BD465DF8047B704700BF00380240FD
:1029D00080B58CB000AF786007F11C0300221A604C
:1029E0005A609A60DA601A617B681B682E4A9342CB
:1029F00028D10023BB612D4B5B6C2C4A43F48073C0
:102A000053642A4B5B6C03F48073BB61BB69002386
:102A10007B61264B1B6B254A43F001031363234B59
:102A20001B6B03F001037B617B690823FB610323BC
:102A30003B6200237B6207F11C0319461C4801F02E
:102A4000B5FB2CE07B681B681A4A934227D1002310
:102A50003B61164B5B6C154A43F480635364134B24
:102A60005B6C03F480633B613B690023FB600F4BAD
:102A70001B6B0E4A43F0040313630C4B1B6B03F0F8
:102A80000403FB60FB680123FB6103233B6200231B
:102A90007B6207F11C031946074801F087FB00BF62
:102AA0003037BD4680BD00BF0020014000380240E5
:102AB00000000240002201400008024080B58AB0B8
:102AC00000AF786007F1140300221A605A609A6020
:102AD000DA601A617B681B68174A934227D100238A
:102AE0003B61164B1B6C154A43F000531364134BA8
:102AF0001B6C03F000533B613B690023FB600F4BF1
:102B00001B6B0E4A43F0010313630C4B1B6B03F06A
:102B10000103FB60FB6810237B610323BB6100237F
:102B2000FB6107F114031946054801F03FFB00BFA4
:102B30002837BD4680BD00BF007400400038024009
:102B40000000024080B58AB000AF786007F114033E
:102B500000221A605A609A60DA601A617B681B680A
:102B6000194A93422BD100233B61184B1B6B174A28
:102B700043F020031363154B1B6B03F020033B61F1
:102B80003B6903237B611223BB610123FB610323A8
:102B90003B6204237B6207F1140319460C4801F0E1
:102BA00005FB0023FB60094B1B6C084A43F48003C0
:102BB0001364064B1B6C03F48003FB60FB6800BFCF
:102BC0002837BD4680BD00BF005800400038024095
:102BD0000014024080B58CB000AF786007F11C0390
:102BE00000221A605A609A60DA601A617B681B687A
:102BF000424A93424BD10023BB61414B1B6C404A7C
:102C000043F4801313643E4B1B6C03F48013BB61CD
:102C1000BB6900237B613A4B1B6B394A43F00403C9
:102C20001363374B1B6B03F004037B617B69002349
:102C30003B61334B1B6B324A43F008031363304B49
:102C40001B6B03F008033B613B694FF48053FB614E
:102C500002233B6201237B620323BB620823FB62E6
:102C600007F11C031946274801F0A0FA0423FB6171
:102C700002233B6201237B620323BB620823FB62C6
:102C800007F11C031946204801F090FA31E07B68F7
:102C90001B681E4A93422CD10023FB60184B1B6C0F
:102CA000174A43F480231364154B1B6C03F48023F1
:102CB000FB60FB680023BB60114B1B6B104A43F0A9
:102CC000080313630E4B1B6B03F00803BB60BB6868
:102CD0004FF44073FB6102233B6200237B620323BA
:102CE000BB620723FB6207F11C031946064801F08B
:102CF0005DFA00BF3037BD4680BD00BF00500040C8
:102D00000038024000080240000C02400048004029
:102D100080B58AB000AF786007F1140300221A6012
:102D20005A609A60DA601A617B681B68B3F1A04F41
:102D30003FD100233B61214B1B6B204A43F0010331
:102D400013631E4B1B6B03F001033B613B694FF4A4
:102D5000E8537B610223BB610023FB6103233B62D9
:102D60000A237B6207F114031946154801F01EFA85
:102D70004FF400737B610023BB610023FB6107F10B
:102D8000140319460E4801F011FA0C4B5B6B0B4A09
:102D900043F0800353630023FB60084B5B6C074ADE
:102DA00043F480435364054B5B6C03F48043FB6046
:102DB000FB6800BF2837BD4680BD00BF0038024019
:102DC0000000024080B400AF00BFBD465DF8047B48
:102DD000704780B400AFFEE780B400AFFEE780B478
:102DE00000AFFEE780B400AFFEE780B400AF00BFE5
:102DF000BD465DF8047B704780B400AF00BFBD46A0
:102E00005DF8047B704780B400AF00BFBD465DF83D
:102E1000047B704780B500AF00F0DAFB00BF80BDD7
:102E200080B400AF01231846BD465DF8047B7047AF
:102E300080B582B000AF7860396003F0B3FD03461F
:102E400016221A604FF0FF3318460837BD4680BD82
:102E500080B582B000AF78604FF0FF317868FFF73F
:102E6000E7FFFEE780B586B000AFF860B9607A6032
:102E700000237B610AE0AFF300800146BB685A1C67
:102E8000BA60CAB21A707B6901337B617A697B6868
:102E90009A42F0DB7B6818461837BD4680BD80B586
:102EA00086B000AFF860B9607A6000237B6109E00A
:102EB000BB685A1CBA601B781846AFF300807B6968
:102EC00001337B617A697B689A42F1DB7B68184643
:102ED0001837BD4680BD80B483B000AF78604FF036
:102EE000FF3318460C37BD465DF8047B704780B44D
:102EF00083B000AF786039603B684FF400525A608D
:102F0000002318460C37BD465DF8047B704780B43B
:102F100083B000AF7860012318460C37BD465DF8DA
:102F2000047B704780B485B000AFF860B9607A6008
:102F3000002318461437BD465DF8047B7047000037
:102F400080B584B000AF7860114B1B68002B02D1B4
:102F50000F4B104A1A600E4B1B68FB600C4B1A6833
:102F60007B6813446A46934207D903F01BFD03466E
:102F70000C221A604FF0FF3306E0054B1A687B689D
:102F80001344034A1360FB6818461037BD4680BDE2
:102F900064070020880D002080B400AF084BD3F8F0
:102FA0008830074A43F47003C2F88830044B4FF06E
:102FB00000629A6000BFBD465DF8047B704700BFA9
:102FC00000ED00E00000000080B582B000AF0021FD
:102FD000954801F012F8954800F082FB934800F004
:102FE000C9FC07EE900AF8EE677A914BC3ED007AC0
:102FF0008F4B1B681846FDF7B7FA7DA3D3E9002372
:10300000FDF70AFB02460B4610461946FDF7FCFD8C
:103010000346884A1360874B1B681846FDF7A4FADD
:1030200002460B4674A1D1E90001FDF73DF90246C5
:103030000B461046194672A3D3E90023FDF7ECFABC
:1030400002460B46104619466FA3D3E90023FDF74D
:103050002DF902460B4643EC172BB0EE470AF0EE73
:10306000670A08F0F5F853EC102B69A1D1E90001CB
:10307000FDF71AF902460B461046194666A3D3E936
:103080000023FDF7F3FB02460B46104619464FF0AE
:103090000002694BFDF70AF902460B461046194635
:1030A000FDF7B2FD0346654A1360644BD3ED007A29
:1030B000FCEEE77A17EE902A614B1A600A2000F0C6
:1030C000A7FA604800F00CFB4FF0FF315D4800F0BC
:1030D000CDFB0346002B25D15A4800F04BFC07EEF0
:1030E000900AF8EE677A584BC3ED007A564B1B688E
:1030F0001846FDF739FA4AA3D3E90023FDF78CFA05
:1031000002460B46104619464FF000024F4BFDF7A2
:10311000ADFB02460B4610461946FDF775FD03460A
:103120004B4A136001214B4801F0ECF90346002B98
:1031300037D000F061FA78602CE000F05DFA0246CA
:103140007B68D31AB3F5967F10D900F055FA7860F2
:10315000414BD3ED007A9FED417A77EE877A3E4B73
:10316000C3ED007A052000F053FA1AE000F044FAAB
:1031700002467B68D31A142B0CD9374BD3ED007A57
:103180009FED377A77EE877A334BC3ED007A642070
:1031900000F03EFA01212F4801F0B4F90346002B5C
:1031A000CBD102212F4801F0ADF90346002B76D098
:1031B00000F022FA38606BE000F01EFA02463B682D
:1031C000D31AB3F5967F4FD900F016FA3860224B28
:1031D000D3ED007A9FED217A77EEC77A1E4BC3EDCF
:1031E000007A052000F014FA59E000BFAFF3008028
:1031F000986E1283C0CAE93F9A999999996DA14036
:103200003F52448655BC913F282EC72B100F674074
:10321000448B6CE7FB292B403F52448655BC81BF51
:1032200052B81E85EBD128402408002094070020C6
:10323000500D0020640D002000003E40540D002081
:10324000600D0020DC0700206807002000408F4050
:103250006C070020000402406C0D00200000C842F2
:10326000000048420008024000F0C6F902463B68F0
:10327000D31A142B0CD9674BD3ED007A9FED667AE5
:1032800077EEC77A634BC3ED007A642000F0C0F993
:103290000221624801F036F90346002B8CD1604BC5
:1032A000D3ED007AB7EE007AF4EEC77AF1EE10FAB9
:1032B00003D55C4B4FF000021A60564BD3ED006A09
:1032C000574B93ED007AC6EE877A564BC3ED007AE2
:1032D000544BD3ED007AB3EE047A67EE877A524B03
:1032E000C3ED007A504B93ED007ADFED506AC7EEE4
:1032F000267A4F4BC3ED007A4A4BD3ED007AB7EEF6
:10330000007A77EEC77AFCEEE77A17EE902A494BFF
:103310001A60484B1B68642B02D9464B64221A6022
:103320003C4BD3ED007AFCEEE77A17EE902A424B45
:103330001A60384BD3ED007AF5EEC07AF1EE10FA50
:1033400003D5344B4FF000021A6001210120FFF732
:10335000CFF9384B1B681A463849394804F0D4F97C
:10336000012238493648FFF759FA01216920FFF751
:10337000BFF9012233493448FFF750FA334B1B6839
:103380001A463349334804F0BFF913210120FFF7EF
:10339000AFF901222B492F48FFF740FA264B1B6853
:1033A0001A462D492D4804F0AFF925210120FFF7D9
:1033B0009FF901222A492948FFF730FA2521572091
:1033C000FFF796F9012226492648FFF727FAFFF76B
:1033D000E9F8142000F01CF9114BD3ED007AB7EE98
:1033E000007AF4EEC77AF1EE10FA02D5114B002202
:1033F0001A600F4BD3ED007AFCEEE77A17EE903AA5
:1034000000220021184800F0ABFE00BF0837BD467F
:1034100080BD00BF6C0D0020000048420008024043
:103420006C070020740700205C0D002000404E3F18
:1034300070070020680D0020580D002090B500088E
:103440002801002060000020ACB50008600D0020BD
:10345000B0B5000808010020C8B50008E800002049
:1034600070000020D4B500082408002080B500AF0B
:10347000FEF746F8FEF7D8FF0020FFF7C1F8FFF788
:1034800091F812210A20FFF733F901220E490F4863
:10349000FFF7C4F92D210220FFF72AF901220C4978
:1034A0000C48FFF7BBF9FFF77DF84FF4FA7000F016
:1034B000AFF80020FFF7A4F8FFF774F80021002010
:1034C000FFF716F900BF80BD68000020DCB50008DA
:1034D00060000020E4B50008DFF834D0002103E0EC
:1034E0000C4B5B58435004310B480C4B42189A422A
:1034F000F6D30B4A02E0002342F8043B094B9A4200
:10350000F9D3FFF749FD03F053FAFEF7AFF970471F
:1035100000000320E4E2000800000020280300204F
:1035200028030020880D0020FEE7000080B500AFD2
:103530000E4B1B680D4A43F4007313600B4B1B6862
:103540000A4A43F480631360084B1B68074A43F43C
:1035500080731360032000F0FBFC002000F008F8EB
:10356000FFF70EFA0023184680BD00BF003C024062
:1035700080B582B000AF7860124B1A68124B1B788E
:1035800019464FF47A73B3FBF1F3B2FBF3F3184629
:1035900000F005FD0346002B01D001230EE07B68FF
:1035A0000F2B0AD8002279684FF0FF3000F0DBFCC7
:1035B000064A7B681360002300E0012318460837A1
:1035C000BD4680BDE40000204C01002048010020E1
:1035D00080B400AF064B1B781A46064B1B68134499
:1035E000044A136000BFBD465DF8047B704700BF0E
:1035F0004C010020740D002080B400AF034B1B6809
:103600001846BD465DF8047B704700BF740D00206E
:1036100080B584B000AF7860FFF7EEFFB8607B68DC
:10362000FB60FB68B3F1FF3F05D00A4B1B781A46DD
:10363000FB681344FB6000BFFFF7DEFF0246BB6878
:10364000D31AFA689A42F7D800BF00BF1037BD46B8
:1036500080BD00BF4C01002080B584B000AF786011
:103660000023FB737B68002B01D1012333E07B68CF
:103670001B6C002B09D17868FFF7AAF97B68002240
:103680005A647B68002283F83C207B681B6C03F043
:103690001003002B18D17B681B6C23F4885323F094
:1036A000020343F002027B681A64786800F0A2FA11
:1036B0007B6800225A647B681B6C23F0030343F091
:1036C00001027B681A6401E00123FB737B6800221E
:1036D00083F83C20FB7B18461037BD4680BD0000B8
:1036E00080B485B000AF78600023BB607B6893F83E
:1036F0003C30012B01D10223A5E07B68012283F835
:103700003C207B681B689B6803F00103012B18D0E9
:103710007B681B689A687B681B6842F001029A60AC
:103720004C4B1B684C4AA2FB03239A0C13465B00CC
:103730001344BB6002E0BB68013BBB60BB68002B6D
:10374000F9D17B681B689B6803F00103012B79D1D9
:103750007B681B6C23F4E06323F0010343F4807265
:103760007B681A647B681B685B6803F48063002BCA
:1037700007D07B681B6C23F4405343F480527B6872
:103780001A647B681B6C03F48053B3F5805F06D129
:103790007B685B6C23F006027B685A6402E07B68FE
:1037A00000225A647B68002283F83C202B4BFB608C
:1037B0007B681B686FF022021A60FB685B6803F08D
:1037C0001F03002B2AD17B681B68254A934215D022
:1037D0007B681B68234A934205D1204B5B6803F04A
:1037E0001F03002B0AD07B681B681F4A934229D114
:1037F0001A4B5B6803F01003002B23D17B681B6816
:103800009B6803F04053002B1CD17B681B689A68AF
:103810007B681B6842F080429A6013E07B681B68FB
:103820000F4A93420ED17B681B689B6803F040539C
:10383000002B07D17B681B689A687B681B6842F085
:1038400080429A60002318461437BD465DF8047B19
:10385000704700BFE400002083DE1B4300230140CB
:1038600000200140002101400022014080B584B0C9
:1038700000AF786039600023FB607B681B689B6841
:1038800003F48063B3F5806F13D17B681B689B687A
:1038900003F48073B3F5807F0BD17B681B6C43F01E
:1038A00020027B681A647B68002283F83C20012395
:1038B0005CE0FFF7A1FEF8601AE03B68B3F1FF3F60
:1038C00016D03B68002B07D0FFF796FE0246FB6838
:1038D000D31A3A689A420BD27B681B6C43F00402FD
:1038E0007B681A647B68002283F83C2003233DE058
:1038F0007B681B681B6803F00203022BDDD17B6829
:103900001B686FF012021A607B681B6C43F4007234
:103910007B681A647B681B689B6803F04053002B2C
:1039200023D17B681B7E002B1FD17B681B68DB6A61
:1039300003F47003002B06D07B681B689B6803F4BC
:103940008063002B11D17B681B6C23F480727B6831
:103950001A647B681B6C03F48053002B05D17B68D1
:103960001B6C43F001027B681A6400231846103771
:10397000BD4680BD80B483B000AF78607B681B68B3
:10398000DB6C18460C37BD465DF8047B70470000C1
:1039900080B485B000AF786039600023BB607B687D
:1039A00093F83C30012B01D1022313E17B68012203
:1039B00083F83C203B681B68092B25D97B681B6872
:1039C000D9683B681B689BB21A4613465B001344D8
:1039D0001E3B072202FA03F3DA437B681B680A40A6
:1039E000DA607B681B68D9683B689A683B681B682B
:1039F0009BB2184603465B0003441E3B9A407B681B
:103A00001B680A43DA6022E07B681B6819693B681F
:103A10001B689BB21A4613465B001344072202FA46
:103A200003F3DA437B681B680A401A617B681B68F2
:103A300019693B689A683B681B689BB21846034645
:103A40005B0003449A407B681B680A431A613B6829
:103A50005B68062B24D87B681B68596B3B685A68E7
:103A600013469B001344053B1F2202FA03F3DA437B
:103A70007B681B680A405A637B681B68596B3B680C
:103A80001B689BB218463B685A6813469B00134458
:103A9000053B00FA03F27B681B680A435A634CE05B
:103AA0003B685B680C2B24D87B681B68196B3B68F0
:103AB0005A6813469B001344233B1F2202FA03F368
:103AC000DA437B681B680A401A637B681B68196BC2
:103AD0003B681B689BB218463B685A6813469B00BC
:103AE0001344233B00FA03F27B681B680A431A6302
:103AF00023E07B681B68D96A3B685A6813469B00C1
:103B00001344413B1F2202FA03F3DA437B681B682C
:103B10000A40DA627B681B68D96A3B681B689BB203
:103B200018463B685A6813469B001344413B00FA11
:103B300003F27B681B680A43DA62294BFB607B68EF
:103B40001B68284A93420FD13B681B68122B0BD18C
:103B5000FB685B6823F40002FB685A60FB685B68E3
:103B600043F48002FB685A607B681B681D4A9342DD
:103B70002BD13B681B681C4A934203D03B681B68EF
:103B8000112B22D1FB685B6823F48002FB685A602A
:103B9000FB685B6843F40002FB685A603B681B6883
:103BA000114A934211D1114B1B68114AA2FB032306
:103BB0009A0C13469B0013445B00BB6002E0BB6899
:103BC000013BBB60BB68002BF9D17B68002283F806
:103BD0003C20002318461437BD465DF8047B70472F
:103BE000002301400020014012000010E4000020EA
:103BF00083DE1B4380B485B000AF7860794BFB60F7
:103C0000FB685B6823F44032FB685A60FB685A68C3
:103C10007B685B681A43FB685A607B681B685A685C
:103C20007B681B6822F480725A607B681B68596845
:103C30007B681B691A027B681B680A435A607B68B1
:103C40001B685A687B681B6822F040725A607B6868
:103C50001B6859687B689A687B681B680A435A60CE
:103C60007B681B689A687B681B6822F400629A6014
:103C70007B681B6899687B68DA687B681B680A4305
:103C80009A607B689B6A584A934222D07B681B6883
:103C90009A687B681B6822F070629A607B681B6878
:103CA00099687B689A6A7B681B680A439A607B689C
:103CB0001B689A687B681B6822F040529A607B6898
:103CC0001B6899687B68DA6A7B681B680A439A609C
:103CD0000FE07B681B689A687B681B6822F0706243
:103CE0009A607B681B689A687B681B6822F0405268
:103CF0009A607B681B689A687B681B6822F00202E6
:103D00009A607B681B6899687B681B7E5A007B6899
:103D10001B680A439A607B6893F82030002B1BD005
:103D20007B681B685A687B681B6842F400625A60B3
:103D30007B681B685A687B681B6822F460425A6083
:103D40007B681B6859687B685B6A013B5A037B6828
:103D50001B680A435A6007E07B681B685A687B68E7
:103D60001B6822F400625A607B681B68DA6A7B6811
:103D70001B6822F47002DA627B681B68D96A7B6870
:103D8000DB69013B1A057B681B680A43DA627B68C2
:103D90001B689A687B681B6822F400729A607B68D3
:103DA0001B6899687B6893F830305A027B681B68FF
:103DB0000A439A607B681B689A687B681B6822F4D8
:103DC00080629A607B681B6899687B685B699A026D
:103DD0007B681B680A439A6000BF1437BD465DF8D4
:103DE000047B7047002301400100000F80B485B0C0
:103DF00000AF78607B6803F00703FB600C4BDB6867
:103E0000BB60BA684FF6FF031340BB60FB681A0241
:103E1000BB68134343F0BF6343F40033BB60044A01
:103E2000BB68D36000BF1437BD465DF8047B7047A4
:103E300000ED00E080B400AF044BDB681B0A03F028
:103E400007031846BD465DF8047B704700ED00E0AF
:103E500080B483B000AF03463960FB7197F9073037
:103E6000002B0ADB3B68DAB20C4997F907301201E4
:103E7000D2B20B4483F800230AE03B68DAB2084967
:103E8000FB7903F00F03043B1201D2B20B441A7604
:103E900000BF0C37BD465DF8047B704700E100E0D1
:103EA00000ED00E080B489B000AFF860B9607A60DE
:103EB000FB6803F00703FB61FB69C3F10703042BF5
:103EC00028BF0423BB61FB690433062B02D9FB69BD
:103ED000033B00E000237B614FF0FF32BB6902FA35
:103EE00003F3DA43BB681A407B699A404FF0FF3115
:103EF0007B6901FA03F3D9437B680B4013431846EF
:103F00002437BD465DF8047B7047000080B582B061
:103F100000AF78607B68013BB3F1807F01D3012360
:103F20000FE00A4A7B68013B53600F214FF0FF30DE
:103F3000FFF78EFF054B00229A60044B07221A60A0
:103F4000002318460837BD4680BD00BF10E000E0E2
:103F500080B582B000AF78607868FFF747FF00BF98
:103F60000837BD4680BD80B586B000AF0346B96056
:103F70007A60FB7300237B61FFF75CFF78617A68EE
:103F8000B9687869FFF78EFF024697F90F3011463E
:103F90001846FFF75DFF00BF1837BD4680BD80B5EE
:103FA00082B000AF78607868FFF7B0FF034618462C
:103FB0000837BD4680BD80B582B000AF78607B68B1
:103FC000002B01D1012314E07B681B79DBB2002BAD
:103FD00005D17B6800225A717868FEF76FFD7B6817
:103FE00002221A717B6800221A617B6801221A7111
:103FF000002318460837BD4680BD80B485B000AFA9
:10400000786039600023FB600023BB607B685B79CC
:10401000012B01D1022350E07B6801225A717B6899
:1040200002221A717B681B68196801223B689A405A
:104030007B681B680A431A603B68002B1AD17B68B7
:104040001B681B6803F00403FB607B681B681B682C
:1040500003F03803BB60FB68042B27D1BB68382B07
:1040600024D17B681B685A687B681B6842F0010298
:104070005A601BE07B681B681B6803F48023FB60AD
:104080007B681B681B6803F46013BB60FB68B3F5B7
:10409000802F0BD1BB68B3F5601F07D17B681B680D
:1040A0005A687B681B6842F002025A607B680122F2
:1040B0001A717B6800225A71002318461437BD46D6
:1040C0005DF8047B704780B487B000AFF860B960DA
:1040D0007A6000237B6100233B61FB685B79012BE5
:1040E00001D1022336E0FB6801225A71FB680222EB
:1040F0001A71FB681B681B687B6140F6FE727B6867
:1041000002FA03F3DB437A6913407B61BB681A68E8
:10411000BB685B6813433B613A697B6802FA03F34F
:104120007A6913437B61FB681B687A691A60FB68D4
:104130001B681968C0227B6802FA03F3DA43FB6844
:104140001B680A401A60FB6801221A71FB68002292
:104150005A71002318461C37BD465DF8047B704732
:1041600080B487B000AFF860B9607A603B6000232C
:104170007B61FB681B687B61BB68002B05D17A699A
:104180007B68134408337B6104E07A697B681344DD
:1041900014337B617B691A463B6813600023184621
:1041A0001C37BD465DF8047B7047000080B489B0C1
:1041B00000AF7860396000237B6100233B610023FE
:1041C000BB610023FB6177E10122FB6902FA03F383
:1041D0007B613B681B687A6913403B613A697B6984
:1041E0009A4240F066813B685B68012B0BD03B68CC
:1041F0005B68022B07D03B685B68112B03D03B68E0
:104200005B68122B30D17B689B68BB61FB695B00EC
:10421000032202FA03F3DB43BA691340BB613B6834
:10422000DA68FB695B0002FA03F3BA691343BB6106
:104230007B68BA699A607B685B68BB610122FB6935
:1042400002FA03F3DB43BA691340BB613B685B6866
:104250001B0903F00102FB6902FA03F3BA69134375
:10426000BB617B68BA695A607B68DB68BB61FB69CC
:104270005B00032202FA03F3DB43BA691340BB611C
:104280003B689A68FB695B0002FA03F3BA6913435F
:10429000BB617B68BA69DA603B685B68022B03D05C
:1042A0003B685B68122B23D1FB69DA087B68083214
:1042B00053F82230BB61FB6903F007039B000F2218
:1042C00002FA03F3DB43BA691340BB613B681A6926
:1042D000FB6903F007039B0002FA03F3BA69134377
:1042E000BB61FB69DA087B680832B96943F82210C0
:1042F0007B681B68BB61FB695B00032202FA03F366
:10430000DB43BA691340BB613B685B6803F003029F
:10431000FB695B0002FA03F3BA691343BB617B6874
:10432000BA691A603B685B6803F08053002B00F0A9
:10433000C0800023FB60664B5B6C654A43F480439E
:104340005364634B5B6C03F48043FB60FB68614A1E
:10435000FB699B08023352F82330BB61FB6903F011
:1043600003039B000F2202FA03F3DB43BA691340F5
:10437000BB617B68584A934237D07B68574A934267
:1043800031D07B68564A93422BD07B68554A934282
:1043900025D07B68544A93421FD07B68534A93428E
:1043A00019D07B68524A934213D07B68514A93429A
:1043B0000DD07B68504A934207D07B684F4A9342A6
:1043C00001D1092312E00A2310E008230EE007239D
:1043D0000CE006230AE0052308E0042306E003239B
:1043E00004E0022302E0012300E00023FA6902F066
:1043F000030292009340BA691343BB613549FB69DC
:104400009B080233BA6941F823203D4B1B68BB610E
:104410003B69DB43BA691340BB613B685B6803F4EB
:104420008033002B03D0BA693B691343BB61344A24
:10443000BB691360324B5B68BB613B69DB43BA69A4
:104440001340BB613B685B6803F40033002B03D06F
:10445000BA693B691343BB61294ABB695360284B66
:104460009B68BB613B69DB43BA691340BB613B6836
:104470005B6803F48013002B03D0BA693B691343D4
:10448000BB611F4ABB6993601D4BDB68BB613B6925
:10449000DB43BA691340BB613B685B6803F40013FC
:1044A000002B03D0BA693B691343BB61144ABB6953
:1044B000D360FB690133FB61FB690F2B7FF684AE90
:1044C00000BF00BF2437BD465DF8047B704700BFC6
:1044D0000038024000380140000002400004024061
:1044E00000080240000C024000100240001402408C
:1044F00000180240001C024000200240002402403C
:10450000003C014080B485B000AF78600B467B80F2
:104510007B681A697B881340002B02D00123FB7350
:1045200001E00023FB73FB7B18461437BD465DF8A2
:10453000047B704780B483B000AF78600B467B800B
:1045400013467B707B78002B03D07A887B689A6156
:1045500003E07B881A047B689A6100BF0C37BD4674
:104560005DF8047B7047000080B584B000AF7860D0
:104570007B68002B01D101232BE17B6893F83D3050
:10458000DBB2002B06D17B68002283F83C207868E0
:10459000FEF7D8FA7B68242283F83D207B681B68ED
:1045A0001A687B681B6822F001021A607B681B682E
:1045B0001A687B681B6842F400421A607B681B68BB
:1045C0001A687B681B6822F400421A6001F022FB23
:1045D000F8607B685B68814A934207D8FB68804A31
:1045E000934294BF01230023DBB206E0FB687D4ABF
:1045F000934294BF01230023DBB2002B01D001239F
:10460000E7E0FB68784AA2FB03239B0CBB607B6856
:104610001B685B6823F03F017B681B68BA680A432C
:104620005A607B681B681B6A23F03F017B685B68EC
:104630006A4A934202D8BB68013309E0BB684FF471
:10464000967202FB03F3694AA2FB03239B09013321
:104650007A6812680B4313627B681B68DB6923F47A
:104660004F4222F0FF027B685B685C498B4219D89D
:10467000FB68591E7B685B685B00B1FBF3F3591C58
:1046800040F6FC730B40002B0AD0FB68591E7B6878
:104690005B685B00B1FBF3F30133C3F30B0351E041
:1046A00004234FE07B689B68002B11D1FB68581EE8
:1046B0007B6859680B465B000B44B0FBF3F3013396
:1046C000C3F30B03002B0CBF01230023DBB212E06A
:1046D000FB68581E7B6859680B469B000B44990089
:1046E0000B44B0FBF3F30133C3F30B03002B0CBFFC
:1046F00001230023DBB2002B01D0012322E07B68E1
:104700009B68002B0ED1FB68581E7B6859680B46CE
:104710005B000B44B0FBF3F30133C3F30B0343F42F
:1047200000430FE0FB68581E7B6859680B469B00EE
:104730000B4499000B44B0FBF3F30133C3F30B03B9
:1047400043F44043796809681343CB617B681B6875
:104750001B6823F0C0017B68DA697B681B6A1A4317
:104760007B681B680A431A607B681B689B6823F49C
:10477000034323F0FF037A6811697A68D268114312
:104780007A6812680B4393607B681B68DB6823F0D0
:10479000FF017B685A697B689B691A437B681B68C9
:1047A0000A43DA607B681B681A687B681B6842F002
:1047B00001021A607B6800221A647B68202283F859
:1047C0003D207B6800221A637B68002283F83E202C
:1047D000002318461037BD4680BD00BFA0860100EB
:1047E0007F841E00FF083D0083DE1B43D34D621013
:1047F00080B588B002AFF8607A601A460B467B81BC
:1048000013463B81FEF7F8FE7861FB6893F83D3074
:10481000DBB2202B40F0E0807B690093192301225A
:104820007049F86800F092FA0346002B01D0022389
:10483000D3E0FB6893F83C30012B01D10223CCE09C
:10484000FB68012283F83C20FB681B681B6803F0AF
:104850000103012B07D0FB681B681A68FB681B6803
:1048600042F001021A60FB681B681A68FB681B684B
:1048700022F400621A60FB68212283F83D20FB6865
:10488000102283F83E20FB6800221A64FB687A68D5
:104890005A62FB683A895A85FB685B8D9AB2FB685D
:1048A0001A85FB68504ADA6279897B693A6AF86846
:1048B00000F0CAF90346002B01D001238DE000234C
:1048C0003B61FB681B685B693B61FB681B689B691C
:1048D0003B613B6966E07A69396AF86800F00CFB75
:1048E0000346002B0DD0FB681B6C042B07D1FB6823
:1048F0001B681A68FB681B6842F400721A60012387
:104900006BE0FB685B6A1A78FB681B681A61FB68DE
:104910005B6A5A1CFB685A62FB685B8D9BB2013B69
:104920009AB2FB685A85FB681B8D013B9AB2FB6803
:104930001A85FB681B685B6903F00403042B1BD119
:10494000FB681B8D002B17D0FB685B6A1A78FB682D
:104950001B681A61FB685B6A5A1CFB685A62FB6839
:104960005B8D9BB2013B9AB2FB685A85FB681B8D3D
:10497000013B9AB2FB681A857A69396AF86800F0D7
:10498000FCFA0346002B0DD0FB681B6C042B07D1EF
:10499000FB681B681A68FB681B6842F400721A60A7
:1049A00001231AE0FB681B8D002B94D1FB681B6868
:1049B0001A68FB681B6842F400721A60FB682022C8
:1049C00083F83D20FB68002283F83E20FB6800222C
:1049D00083F83C20002300E0022318461837BD4628
:1049E00080BD00BF020010000000FFFF80B58AB04C
:1049F00002AFF8607A603B600B467B81FEF7FCFDFE
:104A0000F8610123BB61FB6893F83D30DBB2202BDA
:104A100040F01181FB690093192301228849F8684D
:104A200000F094F90346002B01D0022304E1FB6857
:104A300093F83C30012B01D10223FDE0FB680122F9
:104A400083F83C20FB681B681B6803F00103012B03
:104A500007D0FB681B681A68FB681B6842F00102FC
:104A60001A60FB681B681A68FB681B6822F4006206
:104A70001A60FB68242283F83D20FB6800221A6438
:104A8000FB68704ADA62FB681B681A68FB681B687F
:104A900042F480721A60FB6900933B6800224FF079
:104AA0000111F86800F052F90346002B0DD0FB68A5
:104AB0001B681B6803F48073B3F5807F03D1FB6828
:104AC0004FF400721A640323B6E07B89DBB21A4606
:104AD000FB681B6802F0FE021A61FEF78DFDF861AB
:104AE000FB681B685B6903F00203022B0CBF012308
:104AF0000023DBB2FB75FB681B685B6903F4806312
:104B0000B3F5806F0CBF01230023DBB2BB7525E03A
:104B1000FEF772FD0246FB69D31A3A689A4202D345
:104B20003B68002B03D1FB68A02283F83D20FB6883
:104B30001B685B6903F00203022B0CBF01230023F7
:104B4000DBB2FB75FB681B685B6903F48063B3F53C
:104B5000806F0CBF01230023DBB2BB75FB6893F8A9
:104B60003D30DBB2A02B05D0FB7D002B02D1BB7DFD
:104B7000002BCDD0FB68202283F83D20FB681B680A
:104B80005B6903F00203022B29D1FB681B681A68DA
:104B9000FB681B6842F400721A6000233B61FB68EB
:104BA0001B685B693B61FB681B689B693B613B69F8
:104BB000FB690093192301222149F86800F0C6F827
:104BC0000346002B01D0012336E0FB68202283F846
:104BD0003D20FB68002283F83C2000232CE0FB688A
:104BE0001B681A68FB681B6842F400721A60FB6855
:104BF0001B686FF480625A61FB69009319230122DC
:104C00000F49F86800F0A2F80346002B01D00123F9
:104C100012E0BB690133BB61BA697B689A42FFF459
:104C200032AFFB68202283F83D20FB68002283F826
:104C30003C20012300E0022318462037BD4680BDFA
:104C4000020010000000FFFF80B588B002AFF860DE
:104C50007A603B600B467B81FB68DB6A7B617B692A
:104C6000082B06D07B69012B03D07B6913F5803FAD
:104C700008D1FB681B681A68FB681B6842F48072E5
:104C80001A600BE0FB681B6B122B07D1FB681B68DB
:104C90001A68FB681B6842F480721A603B680093D4
:104CA0007B6800224FF00111F86800F04FF80346CE
:104CB000002B0DD0FB681B681B6803F48073B3F5F1
:104CC000807F03D1FB684FF400721A64032335E040
:104CD000FB681B69B3F5804F08D17B89DBB21A46AC
:104CE000FB681B6802F0FE021A611BE07B89DB1186
:104CF000DBB203F00603DBB263F00F03DAB2FB684A
:104D00001B681A613B687A680E49F86800F075F80C
:104D10000346002B01D0012310E07B89DAB2FB6847
:104D20001B681A613B687A680749F86800F065F803
:104D30000346002B01D0012300E00023184618375A
:104D4000BD4680BD080001000200010080B584B0AE
:104D500000AFF860B9603B601346FB7125E03B682B
:104D6000B3F1FF3F21D0FEF747FC0246BB69D31ADF
:104D70003A689A4202D33B68002B16D1FB680022A6
:104D80001A63FB68202283F83D20FB68002283F829
:104D90003E20FB681B6C43F02002FB681A64FB6832
:104DA000002283F83C20012323E0BB681B0CDBB20C
:104DB000012B0DD1FB681B685B69DA43BB681340AC
:104DC0009BB2002B0CBF01230023DBB21A460CE080
:104DD000FB681B689B69DA43BB6813409BB2002BDE
:104DE0000CBF01230023DBB21A46FB799A42B6D0EE
:104DF000002318461037BD4680BD80B584B000AF93
:104E0000F860B9607A603B6051E0FB681B685B69E1
:104E100003F48063B3F5806F23D1FB681B681A68C5
:104E2000FB681B6842F400721A60FB681B686FF431
:104E300080625A61FB6800221A63FB68202283F8B3
:104E40003D20FB68002283F83E20FB681B6C43F08A
:104E50000402FB681A64FB68002283F83C200123EB
:104E600046E07B68B3F1FF3F21D0FEF7C5FB024669
:104E70003B68D31A7A689A4202D37B68002B16D11A
:104E8000FB6800221A63FB68202283F83D20FB6840
:104E9000002283F83E20FB681B6C43F02002FB6875
:104EA0001A64FB68002283F83C20012320E0BB68E1
:104EB0001B0CDBB2012B0CD1FB681B685B69DA436E
:104EC000BB6813409BB2002B14BF01230023DBB24D
:104ED0000BE0FB681B689B69DA43BB6813409BB21D
:104EE000002B14BF01230023DBB2002B8DD1002344
:104EF00018461037BD4680BD80B584B000AFF8605D
:104F0000B9607A602DE0F86800F078F80346002B6D
:104F100001D001232DE0BB68B3F1FF3F21D0FEF7A4
:104F20006BFB02467B68D31ABA689A4202D3BB680D
:104F3000002B16D1FB6800221A63FB68202283F83D
:104F40003D20FB68002283F83E20FB681B6C43F089
:104F50002002FB681A64FB68002283F83C200123CE
:104F600007E0FB681B685B6903F08003802BCAD1F4
:104F7000002318461037BD4680BD80B584B000AF11
:104F8000F860B9607A602DE0F86800F037F8034601
:104F9000002B01D001232DE0BB68B3F1FF3F21D0EE
:104FA000FEF72AFB02467B68D31ABA689A4202D3FC
:104FB000BB68002B16D1FB6800221A63FB68202215
:104FC00083F83D20FB68002283F83E20FB681B6CC1
:104FD00043F02002FB681A64FB68002283F83C203F
:104FE000012307E0FB681B685B6903F00403042BE3
:104FF000CAD1002318461037BD4680BD80B483B0A7
:1050000000AF78607B681B685B6903F48063B3F56D
:10501000806F1BD17B681B686FF480625A617B686C
:1050200000221A637B68202283F83D207B680022DF
:1050300083F83E207B681B6C43F004027B681A6493
:105040007B68002283F83C20012300E000231846FF
:105050000C37BD465DF8047B704780B483B000AF69
:10506000786039607B6893F83D30DBB2202B29D122
:105070007B68242283F83D207B681B681A687B6864
:105080001B6822F001021A607B681B685A6A7B6801
:105090001B6822F010025A627B681B68596A7B68A1
:1050A0001B683A680A435A627B681B681A687B6807
:1050B0001B6842F001021A607B68202283F83D20C1
:1050C000002300E0022318460C37BD465DF8047B40
:1050D000704780B485B000AF786039600023FB81F1
:1050E0007B6893F83D30DBB2202B2AD17B682422E9
:1050F00083F83D207B681B681A687B681B6822F078
:1051000001021A607B681B685B6AFB81FB8923F0E4
:105110000F03FB813B689AB2FB891343FB817B68D9
:105120001B68FA895A627B681B681A687B681B686F
:1051300042F001021A607B68202283F83D200023A0
:1051400000E0022318461437BD465DF8047B704723
:10515000F0B58FB00AAF78607B68002B01D10123D6
:105160000FE17B681B68BB607B6893F8BD33DBB2E3
:10517000002B06D17B68002283F8BC237868FDF7FA
:10518000C7FD7B68032283F8BD23BB68DB6B03F498
:105190008073002B02D17B6800221A617B681B6838
:1051A000184601F0AAF97B681B683B607E686D4673
:1051B00006F110040FCC0FC50FCC0FC594E8030007
:1051C00085E80300331D0ECB386801F035F903463E
:1051D000002B05D07B68022283F8BD230123D0E099
:1051E0007B681B680021184601F098F90023FB73C7
:1051F0004AE0FA7B79681346DB009B1A9B000B445C
:105200003D3301221A70FA7B79681346DB009B1A42
:105210009B000B443C33FA7B1A70FA7BFB7B98B201
:1052200079681346DB009B1A9B000B44423302460D
:105230001A80FA7B79681346DB009B1A9B000B44AB
:105240003F3300221A70FA7B79681346DB009B1A01
:105250009B000B44443300221A60FA7B79681346A2
:10526000DB009B1A9B000B44483300221A60FA7B38
:1052700079681346DB009B1A9B000B4450330022D5
:105280001A60FB7B0133FB73FA7B7B685B689A4295
:10529000AFD30023FB7344E0FA7B79681346DB004D
:1052A0009B1A9B000B4403F2FD1300221A70FA7B39
:1052B00079681346DB009B1A9B000B4403F5FE73D1
:1052C000FA7B1A70FA7B79681346DB009B1A9B0005
:1052D0000B4403F2FF1300221A70FA7B796813461D
:1052E000DB009B1A9B000B4403F5017300221A603C
:1052F000FA7B79681346DB009B1A9B000B4403F58D
:10530000027300221A60FA7B79681346DB009B1A4D
:105310009B000B4403F5047300221A60FB7B0133EE
:10532000FB73FA7B7B685B689A42B5D37B681B682A
:105330003B607E686D4606F110040FCC0FC50FCCA4
:105340000FC594E8030085E80300331D0ECB3868D1
:1053500001F00EF90346002B05D07B68022283F88A
:10536000BD2301230DE07B68002283F838207B6891
:10537000012283F8BD237B681B68184601F0BDFA43
:10538000002318461437BD46F0BD000080B586B036
:1053900000AF78607B68002B01D101235BE27B6862
:1053A0001B6803F00103002B75D0A34B9B6803F02F
:1053B0000C03042B0CD0A04B9B6803F00C03082BB0
:1053C00012D19D4B5B6803F48003B3F5800F0BD1C2
:1053D000994B1B6803F40033002B5BD07B685B6840
:1053E000002B57D1012336E27B685B68B3F5803F21
:1053F00006D1914B1B68904A43F4803313601DE043
:105400007B685B68B3F5A02F0CD18B4B1B688A4A75
:1054100043F480231360884B1B68874A43F480332E
:1054200013600BE0844B1B68834A23F480331360C2
:10543000814B1B68804A23F4802313607B685B6880
:10544000002B13D0FEF7D8F8386108E0FEF7D4F847
:1054500002463B69D31A642B01D90323FBE1764B47
:105460001B6803F40033002BF0D014E0FEF7C4F8FF
:10547000386108E0FEF7C0F802463B69D31A642B96
:1054800001D90323E7E16C4B1B6803F40033002BC5
:10549000F0D100E000BF7B681B6803F00203002B23
:1054A00063D0654B9B6803F00C03002B0BD0624B61
:1054B0009B6803F00C03082B1CD15F4B5B6803F463
:1054C0008003002B16D15C4B1B6803F00203002BFA
:1054D00005D07B68DB68012B01D00123BBE1564B73
:1054E0001B6823F0F8027B681B69DB0052491343F9
:1054F0000B603AE07B68DB68002B20D04F4B012229
:105500001A60FEF779F8386108E0FEF775F8024690
:105510003B69D31A022B01D903239CE1464B1B683C
:1055200003F00203002BF0D0434B1B6823F0F8027A
:105530007B681B69DB00404913430B6015E03F4B60
:1055400000221A60FEF758F8386108E0FEF754F8B8
:1055500002463B69D31A022B01D903237BE1364B68
:105560001B6803F00203002BF0D17B681B6803F07B
:105570000803002B30D07B685B69002B16D0304BC2
:1055800001221A60FEF738F8386108E0FEF734F8B7
:1055900002463B69D31A022B01D903235BE1264B58
:1055A0005B6F03F00203002BF0D015E0244B0022C8
:1055B0001A60FEF721F8386108E0FEF71DF8024690
:1055C0003B69D31A022B01D9032344E11A4B5B6FC9
:1055D00003F00203002BF0D17B681B6803F0040387
:1055E000002B00F0A0800023FB75134B1B6C03F015
:1055F0008053002B0FD10023BB600F4B1B6C0E4A56
:1056000043F0805313640C4B1B6C03F08053BB605E
:10561000BB680123FB750B4B1B6803F48073002BE5
:1056200021D1084B1B68074A43F480731360FDF7D0
:10563000E3FF386111E000BF00380240000047423C
:10564000800E474200700040FDF7D6FF02463B69DE
:10565000D31A022B01D90323FDE0814B1B6803F40D
:105660008073002BF0D07B689B68012B06D17D4BAB
:105670001B6F7C4A43F0010313671CE07B689B6847
:10568000052B0CD1774B1B6F764A43F0040313674D
:10569000744B1B6F734A43F0010313670BE0714BAC
:1056A0001B6F704A23F0010313676E4B1B6F6D4A2B
:1056B00023F0040313677B689B68002B15D0FDF76C
:1056C0009BFF38610AE0FDF797FF02463B69D31A5A
:1056D00041F28832934201D90323BCE0614B1B6F36
:1056E00003F00203002BEED014E0FDF785FF3861D4
:1056F0000AE0FDF781FF02463B69D31A41F2883286
:10570000934201D90323A6E0564B1B6F03F002031B
:10571000002BEED1FB7D012B05D1524B1B6C514A66
:1057200023F0805313647B689B69002B00F0928008
:105730004C4B9B6803F00C03082B5CD07B689B6987
:10574000022B41D1484B00221A60FDF755FF38610A
:1057500008E0FDF751FF02463B69D31A022B01D93D
:10576000032378E03F4B1B6803F00073002BF0D15C
:105770007B68DA697B681B6A1A437B685B6A9B01FA
:105780001A437B689B6A5B08013B1B041A437B68D6
:10579000DB6A1B06334913434B60334B01221A600B
:1057A000FDF72AFF386108E0FDF726FF02463B6956
:1057B000D31A022B01D903234DE02A4B1B6803F0B7
:1057C0000073002BF0D045E0274B00221A60FDF754
:1057D00013FF386108E0FDF70FFF02463B69D31A5B
:1057E000022B01D9032336E01E4B1B6803F0007324
:1057F000002BF0D12EE07B689B69012B01D10123A6
:1058000029E0184B5B68FB60FB6803F480027B684F
:10581000DB699A421CD1FB6803F03F027B681B6A7C
:105820009A4215D1FA6847F6C07313407A68526AF3
:1058300093420DD1FB6803F440327B689B6A9A4225
:1058400006D1FB6803F070627B68DB6A9A4201D084
:10585000012300E0002318461837BD4680BD00BF75
:1058600000700040003802406000474280B584B0BC
:1058700000AF786039607B68002B01D10123CCE058
:10588000684B1B6803F00F033A689A420CD9654BCA
:105890003A68D2B21A70634B1B6803F00F033A6880
:1058A0009A4201D00123B8E07B681B6803F0020331
:1058B000002B20D07B681B6803F00403002B05D06D
:1058C000594B9B68584A43F4E05393607B681B68CC
:1058D00003F00803002B05D0534B9B68524A43F456
:1058E00060439360504B9B6823F0F0027B689B6899
:1058F0004D4913438B607B681B6803F00103002B49
:1059000044D07B685B68012B07D1474B1B6803F4CD
:105910000033002B19D101237FE07B685B68022BE9
:1059200003D07B685B68032B07D13F4B1B6803F0F8
:105930000073002B09D101236FE03B4B1B6803F080
:105940000203002B01D1012367E0374B9B6823F052
:1059500003027B685B68344913438B60FDF74CFEA0
:10596000F8600AE0FDF748FE0246FB68D31A41F2F0
:105970008832934201D903234FE02B4B9B6803F0FD
:105980000C027B685B689B009A42EBD1254B1B683D
:1059900003F00F033A689A420CD2224B3A68D2B213
:1059A0001A70204B1B6803F00F033A689A4201D02B
:1059B000012332E07B681B6803F00403002B08D04E
:1059C000194B9B6823F4E0527B68DB68164913434C
:1059D0008B607B681B6803F00803002B09D0124B17
:1059E0009B6823F460427B681B69DB000E4913430C
:1059F0008B6000F021F802460B4B9B681B0903F0FB
:105A00000F030A49CB5C22FA03F3094A1360094BDE
:105A10001B681846FDF7ACFD002318461037BD463D
:105A200080BD00BF003C02400038024008DE000894
:105A3000E4000020480100202DE9B04384B000AF0D
:105A400000237B600023FB6000233B600023BB60DE
:105A5000674B9B6803F00C03082B0DD0082B00F25A
:105A6000BD80002B02D0042B03D0B7E0614BBB609C
:105A7000B7E0614BBB60B4E05D4B5B6803F03F0394
:105A80007B605B4B5B6803F48003002B4DD0584B6D
:105A90005B689B091A464FF0000340F2FF104FF07D
:105AA000000102EA000803EA0109404649464FF0B6
:105AB00000024FF000034B0143EAD063420110465D
:105AC0001946B0EB080061EB09014FF000024FF0FE
:105AD00000038B0143EA90638201121A63EB010316
